:100000000C9435000C945D000C945D000C945D0024
:100010000C945D000C945D000C945D000C945D00EC
:100020000C945D000C945D000C945D000C945D00DC
:100030000C945D000C945D000C945D000C945D00CC
:100040000C943B020C945D000C94AB020C94850262
:100050000C945D000C945D000C945D000C945D00AC
:100060000C945D000C945D00CD0311241FBECFEFF6
:10007000D8E0DEBFCDBF21E0AAE2B1E001C01D9211
:10008000A03DB207E1F711E0A0E0B1E0ECEBF8E051
:1000900002C005900D92AA32B107D9F710E0C5E36E
:1000A000D0E004C02197FE010E940104C433D107AF
:1000B000C9F70E94DD020C945C040C9400008E30A1
:1000C00008F08E508770806480937C0080917A0065
:1000D000806480937A0080917A0086FDFCCF8091C5
:1000E00078002091790090E0922B08953FB7F89422
:1000F00080912F0190913001A0913101B091320196
:1001000026B5A89B05C02F3F19F00196A11DB11D72
:100110003FBFBA2FA92F982F8827820F911DA11DAD
:10012000B11DBC01CD0142E0660F771F881F991FEA
:100130004A95D1F70895CF92DF92EF92FF920F93F5
:100140001F93CF93DF936C017A018B01C0E0D0E065
:10015000CE15DF0589F0D8016D918D01D601ED91A5
:10016000FC910190F081E02DC6010995892B11F4D5
:100170007E0102C02196ECCFC701DF91CF911F9184
:100180000F91FF90EF90DF90CF900895089580E059
:1001900090E00895FC01538D448D252F30E0842F8D
:1001A00090E0821B930B541710F0CF96089501979F
:1001B0000895FC01918D828D981761F0828DDF0189
:1001C000A80FB11D5D968C91928D9F5F9F73928F4A
:1001D00090E008958FEF9FEF0895FC01918D828D3F
:1001E000981731F0828DE80FF11D858D90E008950C
:1001F0008FEF9FEF0895FC01918D228D892F90E064
:10020000805C9F4F821B91098F739927089583E328
:1002100091E00E94FB0021E0892B09F420E0822F6D
:100220000895FC01848DDF01A80FB11DA35ABF4FB3
:100230002C91848D90E001968F739927848FA689E5
:10024000B7892C93A089B1898C9180648C93938D0C
:10025000848D981306C00288F389E02D80818F7DFC
:1002600080830895EF92FF920F931F93CF93DF93B4
:10027000EC0181E0888F9B8D8C8D981305C0E889F7
:10028000F989808185FD24C0F62E0B8D10E00F5F6B
:100290001F4F0F731127E02E8C8DE8120CC00FB684
:1002A00007FCFACFE889F989808185FFF5CFCE0177
:1002B0000E941101F1CF8B8DFE01E80FF11DE35A71
:1002C000FF4FF0820B8FEA89FB898081806207C033
:1002D000EE89FF896083E889F98980818064808361
:1002E00081E090E0DF91CF911F910F91FF90EF900F
:1002F0000895CF93DF93EC01888D8823C9F0EA89B4
:10030000FB89808185FD05C0A889B9898C9186FD0E
:100310000FC00FB607FCF5CF808185FFF2CFA8890B
:10032000B9898C9185FFEDCFCE010E941101E7CFF5
:10033000DF91CF91089580E090E0892B29F00E9411
:10034000070181110C9400000895009769F0FC01E9
:1003500001900020E9F73197AF01481B590BBC0110
:1003600083E391E00C949B0080E090E008958F92ED
:100370009F92AF92BF92CF92DF92EF92FF920F9334
:100380001F93CF93DF93CDB7DEB7A1970FB6F89445
:10039000DEBF0FBECDBF6C01990FEE08FF08F7FE60
:1003A00031C0E0913301F09134010190F081E02DF2
:1003B0006DE283E391E009958C0122273327A9019F
:1003C0002C193D094E095F0919A2CE0181967C01C5
:1003D0009AE0892E912CA12CB12CCA01B901A5015A
:1003E00094010E942B04605DF70162937F01211547
:1003F00031054105510589F7CF010E94A501080F7C
:10040000191F1EC0A701960119A28E010F5D1F4F73
:100410008AE0C82ED12CE12CF12CCA01B901A70128
:1004200096010E942B04605DF80162938F012115F3
:1004300031054105510589F7CF010E94A5018C01C5
:1004400086E191E00E94A501800F911FA1960FB651
:10045000F894DEBF0FBECDBFDF91CF911F910F91FA
:10046000FF90EF90DF90CF90BF90AF909F908F90D4
:1004700008950E9407041F920F920FB60F92112445
:100480002F933F938F939F93AF93BF9380912B01B3
:1004900090912C01A0912D01B0912E0130912A0153
:1004A00023E0230F2D3720F40196A11DB11D05C0B7
:1004B00026E8230F0296A11DB11D20932A018093E7
:1004C0002B0190932C01A0932D01B0932E018091CC
:1004D0002F0190913001A0913101B091320101962C
:1004E000A11DB11D80932F0190933001A093310184
:1004F000B0933201BF91AF919F918F913F912F9116
:100500000F900FBE0F901F9018951F920F920FB66D
:100510000F9211242F933F934F935F936F937F9389
:100520008F939F93AF93BF93EF93FF9383E391E0F8
:100530000E941101FF91EF91BF91AF919F918F9117
:100540007F916F915F914F913F912F910F900FBECF
:100550000F901F9018951F920F920FB60F921124B3
:100560002F938F939F93EF93FF93E0914301F0912B
:1005700044018081E0914901F0914A0182FD12C05D
:10058000908180914C018F5F8F7320914D01821774
:1005900051F0E0914C01F0E0ED5CFE4F958F8093BF
:1005A0004C0101C08081FF91EF919F918F912F911C
:1005B0000F900FBE0F901F901895789484B58260AD
:1005C00084BD84B5816084BD85B5826085BD85B5F7
:1005D000816085BD80916E00816080936E00109275
:1005E00081008091810082608093810080918100F0
:1005F0008160809381008091800081608093800081
:100600008091B10084608093B1008091B0008160DE
:100610008093B00080917A00846080937A0080910A
:100620007A00826080937A0080917A008160809362
:100630007A0080917A00806880937A001092C100DD
:10064000E0914301F091440182E08083E0913F0119
:10065000F09140011082E0914101F09142018FEC54
:10066000808310924B01E0914701F091480186E0B0
:100670008083E0914501F091460180818061808313
:10068000E0914501F0914601808188608083E0918E
:100690004501F0914601808180688083E0914501A9
:1006A000F091460180818F7D808388248A9493E035
:1006B000992EA12CB12C81E10E945F003C0182E1C6
:1006C0000E945F006C0183E10E945F007C0189E170
:1006D00091E00E94A5018DE191E00E94A50127E033
:1006E00030E0D3010E94FA03A50194010E940C049A
:1006F000C9010E94B70181E291E00E94A5018DE14C
:1007000091E00E94A50124E630E0D6010E94FA03A0
:10071000A50194010E940C04C9010E94B70185E261
:1007200091E00E94A5018DE191E00E94A50124E6DF
:1007300030E0D7010E94FA03A50194010E940C0445
:10074000C9010E94B7010E9476002B013C0184EF91
:10075000C82EDD24D394E12CF12C0E947600DC011C
:10076000CB0184199509A609B709883E9340A105D4
:10077000B10558F021E0C21AD108E108F10888EE6D
:10078000480E83E0581E611C711CC114D104E104A1
:10079000F10419F70E949B018ECFE3E3F1E013828D
:1007A000128288EE93E0A0E0B0E084839583A68374
:1007B000B78388E091E09183808385EC90E0958712
:1007C000848784EC90E09787868780EC90E0918B1B
:1007D000808B81EC90E0938B828B82EC90E0958B08
:1007E000848B86EC90E0978B868B118E128E138E05
:1007F000148E08950E944D04B7FF0895821B930B39
:100800000895EE0FFF1F0590F491E02D099481E00B
:1008100090E0F8940C945C04052E97FB1EF4009471
:100820000E94230457FD07D00E942B0407FC03D02D
:100830004EF40C94230450954095309521953F4FEC
:100840004F4F5F4F089590958095709561957F4FBC
:100850008F4F9F4F0895A1E21A2EAA1BBB1BFD01CB
:100860000DC0AA1FBB1FEE1FFF1FA217B307E4078F
:10087000F50720F0A21BB30BE40BF50B661F771FE7
:10088000881F991F1A9469F76095709580959095C7
:100890009B01AC01BD01CF010895A29FB001B39FA0
:1008A000C001A39F700D811D1124911DB29F700D79
:0C08B000811D1124911D0895F894FFCFC4
:1008BC00010000000000000032019B00CA00790119
:1008CC00FB00D900ED000D0A00726F7700203A2072
:0A08DC00006875650076616C00008D
:00000001FF
